{
  "contractName": "TodoList",
  "abi": [
    {
      "inputs": [],
      "payable": false,
      "stateMutability": "nonpayable",
      "type": "constructor"
    },
    {
      "anonymous": false,
      "inputs": [
        {
          "indexed": false,
          "internalType": "uint256",
          "name": "id",
          "type": "uint256"
        },
        {
          "indexed": false,
          "internalType": "bool",
          "name": "done",
          "type": "bool"
        },
        {
          "indexed": false,
          "internalType": "uint256",
          "name": "date",
          "type": "uint256"
        }
      ],
      "name": "TaskCompleted",
      "type": "event"
    },
    {
      "anonymous": false,
      "inputs": [
        {
          "indexed": false,
          "internalType": "uint256",
          "name": "id",
          "type": "uint256"
        },
        {
          "indexed": false,
          "internalType": "uint256",
          "name": "date",
          "type": "uint256"
        },
        {
          "indexed": false,
          "internalType": "string",
          "name": "content",
          "type": "string"
        },
        {
          "indexed": false,
          "internalType": "string",
          "name": "author",
          "type": "string"
        },
        {
          "indexed": false,
          "internalType": "bool",
          "name": "done",
          "type": "bool"
        }
      ],
      "name": "TaskCreated",
      "type": "event"
    },
    {
      "constant": true,
      "inputs": [],
      "name": "taskCount",
      "outputs": [
        {
          "internalType": "uint256",
          "name": "",
          "type": "uint256"
        }
      ],
      "payable": false,
      "stateMutability": "view",
      "type": "function"
    },
    {
      "constant": true,
      "inputs": [
        {
          "internalType": "uint256",
          "name": "",
          "type": "uint256"
        }
      ],
      "name": "tasks",
      "outputs": [
        {
          "internalType": "uint256",
          "name": "id",
          "type": "uint256"
        },
        {
          "internalType": "uint256",
          "name": "date",
          "type": "uint256"
        },
        {
          "internalType": "string",
          "name": "content",
          "type": "string"
        },
        {
          "internalType": "string",
          "name": "author",
          "type": "string"
        },
        {
          "internalType": "bool",
          "name": "done",
          "type": "bool"
        }
      ],
      "payable": false,
      "stateMutability": "view",
      "type": "function"
    },
    {
      "constant": false,
      "inputs": [
        {
          "internalType": "string",
          "name": "_content",
          "type": "string"
        },
        {
          "internalType": "string",
          "name": "_author",
          "type": "string"
        }
      ],
      "name": "createTask",
      "outputs": [],
      "payable": false,
      "stateMutability": "nonpayable",
      "type": "function"
    },
    {
      "constant": false,
      "inputs": [
        {
          "internalType": "uint256",
          "name": "_id",
          "type": "uint256"
        }
      ],
      "name": "toggleCompleted",
      "outputs": [],
      "payable": false,
      "stateMutability": "nonpayable",
      "type": "function"
    }
  ],
  "bytecode": "0x6080604052600080553480156200001557600080fd5b50620000926040518060400160405280601281526020017f4669727374205461736b204372656174656400000000000000000000000000008152506040518060400160405280600281526020017f61620000000000000000000000000000000000000000000000000000000000008152506200011460201b60201c565b6200010e6040518060400160405280601381526020017f5365636f6e64205461736b2043726561746564000000000000000000000000008152506040518060400160405280600281526020017f63640000000000000000000000000000000000000000000000000000000000008152506200011460201b60201c565b620003bb565b6040518060a00160405280600054815260200142815260200183815260200182815260200160001515815250600160008054815260200190815260200160002060008201518160000155602082015181600101556040820151816002019080519060200190620001869291906200030c565b506060820151816003019080519060200190620001a59291906200030c565b5060808201518160040160006101000a81548160ff0219169083151502179055509050507fb322bdd3250d405f7845d27fa1f0753f8f7e18e40886bc254b89005c3e9c0324600054428484600060405180868152602001858152602001806020018060200184151515158152602001838103835286818151815260200191508051906020019080838360005b838110156200024e57808201518184015260208101905062000231565b50505050905090810190601f1680156200027c5780820380516001836020036101000a031916815260200191505b50838103825285818151815260200191508051906020019080838360005b83811015620002b75780820151818401526020810190506200029a565b50505050905090810190601f168015620002e55780820380516001836020036101000a031916815260200191505b5097505050505050505060405180910390a160008081548092919060010191905055505050565b828054600181600116156101000203166002900490600052602060002090601f016020900481019282601f106200034f57805160ff191683800117855562000380565b8280016001018555821562000380579182015b828111156200037f57825182559160200191906001019062000362565b5b5090506200038f919062000393565b5090565b620003b891905b80821115620003b45760008160009055506001016200039a565b5090565b90565b610a1580620003cb6000396000f3fe608060405234801561001057600080fd5b506004361061004c5760003560e01c8063292a458514610051578063455f5024146101a35780638d977672146101d1578063b6cb58a5146102fd575b600080fd5b6101a16004803603604081101561006757600080fd5b810190808035906020019064010000000081111561008457600080fd5b82018360208201111561009657600080fd5b803590602001918460018302840111640100000000831117156100b857600080fd5b91908080601f016020809104026020016040519081016040528093929190818152602001838380828437600081840152601f19601f8201169050808301925050505050505091929192908035906020019064010000000081111561011b57600080fd5b82018360208201111561012d57600080fd5b8035906020019184600183028401116401000000008311171561014f57600080fd5b91908080601f016020809104026020016040519081016040528093929190818152602001838380828437600081840152601f19601f82011690508083019250505050505050919291929050505061031b565b005b6101cf600480360360208110156101b957600080fd5b8101908080359060200190929190505050610509565b005b6101fd600480360360208110156101e757600080fd5b8101908080359060200190929190505050610791565b60405180868152602001858152602001806020018060200184151515158152602001838103835286818151815260200191508051906020019080838360005b8381101561025757808201518184015260208101905061023c565b50505050905090810190601f1680156102845780820380516001836020036101000a031916815260200191505b50838103825285818151815260200191508051906020019080838360005b838110156102bd5780820151818401526020810190506102a2565b50505050905090810190601f1680156102ea5780820380516001836020036101000a031916815260200191505b5097505050505050505060405180910390f35b610305610904565b6040518082815260200191505060405180910390f35b6040518060a0016040528060005481526020014281526020018381526020018281526020016000151581525060016000805481526020019081526020016000206000820151816000015560208201518160010155604082015181600201908051906020019061038b92919061090a565b5060608201518160030190805190602001906103a892919061090a565b5060808201518160040160006101000a81548160ff0219169083151502179055509050507fb322bdd3250d405f7845d27fa1f0753f8f7e18e40886bc254b89005c3e9c0324600054428484600060405180868152602001858152602001806020018060200184151515158152602001838103835286818151815260200191508051906020019080838360005b8381101561044f578082015181840152602081019050610434565b50505050905090810190601f16801561047c5780820380516001836020036101000a031916815260200191505b50838103825285818151815260200191508051906020019080838360005b838110156104b557808201518184015260208101905061049a565b50505050905090810190601f1680156104e25780820380516001836020036101000a031916815260200191505b5097505050505050505060405180910390a160008081548092919060010191905055505050565b61051161098a565b600160008381526020019081526020016000206040518060a00160405290816000820154815260200160018201548152602001600282018054600181600116156101000203166002900480601f0160208091040260200160405190810160405280929190818152602001828054600181600116156101000203166002900480156105dc5780601f106105b1576101008083540402835291602001916105dc565b820191906000526020600020905b8154815290600101906020018083116105bf57829003601f168201915b50505050508152602001600382018054600181600116156101000203166002900480601f01602080910402602001604051908101604052809291908181526020018280546001816001161561010002031660029004801561067e5780601f106106535761010080835404028352916020019161067e565b820191906000526020600020905b81548152906001019060200180831161066157829003601f168201915b505050505081526020016004820160009054906101000a900460ff16151515158152505090508060800151158160800190151590811515815250508060016000848152602001908152602001600020600082015181600001556020820151816001015560408201518160020190805190602001906106fd92919061090a565b50606082015181600301908051906020019061071a92919061090a565b5060808201518160040160006101000a81548160ff0219169083151502179055509050507fc61d108e7c8dc01dab151d35a1fb121b0da08ae26714b7ee185a1a2d665d2edb828260800151426040518084815260200183151515158152602001828152602001935050505060405180910390a15050565b6001602052806000526040600020600091509050806000015490806001015490806002018054600181600116156101000203166002900480601f0160208091040260200160405190810160405280929190818152602001828054600181600116156101000203166002900480156108495780601f1061081e57610100808354040283529160200191610849565b820191906000526020600020905b81548152906001019060200180831161082c57829003601f168201915b505050505090806003018054600181600116156101000203166002900480601f0160208091040260200160405190810160405280929190818152602001828054600181600116156101000203166002900480156108e75780601f106108bc576101008083540402835291602001916108e7565b820191906000526020600020905b8154815290600101906020018083116108ca57829003601f168201915b5050505050908060040160009054906101000a900460ff16905085565b60005481565b828054600181600116156101000203166002900490600052602060002090601f016020900481019282601f1061094b57805160ff1916838001178555610979565b82800160010185558215610979579182015b8281111561097857825182559160200191906001019061095d565b5b50905061098691906109bb565b5090565b6040518060a00160405280600081526020016000815260200160608152602001606081526020016000151581525090565b6109dd91905b808211156109d95760008160009055506001016109c1565b5090565b9056fea265627a7a72315820e1bb50403cd8acf5b30303b46142c98a7c0771d39f039aeffe833d9738b2f52964736f6c63430005100032",
  "source": "// SPDX-License-Identifier: MIT\r\npragma solidity >=0.4.22 <0.8.0;\r\n\r\ncontract TodoList {\r\n  uint public taskCount = 0;\r\n\r\n  struct Task {\r\n    uint id;\r\n    uint date;\r\n    string content;\r\n    string author;\r\n    bool done;\r\n  }\r\n\r\n  mapping(uint => Task) public tasks;\r\n\r\n  event TaskCreated(\r\n    uint id,\r\n    uint date,\r\n    string content,\r\n    string author,\r\n    bool done\r\n  );\r\n\r\n  event TaskCompleted(\r\n    uint id,\r\n    bool done,\r\n    uint date\r\n  );\r\n\r\n  constructor() public {\r\n    createTask(\"First Task Created\",\"ab\");\r\n    createTask(\"Second Task Created\",\"cd\");\r\n  }\r\n  function createTask(string memory _content,string memory _author) public {\r\n    tasks[taskCount] = Task(taskCount,block.timestamp, _content,_author, false);\r\n    emit TaskCreated(taskCount,block.timestamp, _content,_author, false);\r\n    taskCount ++;\r\n  }\r\n\r\n  function toggleCompleted(uint _id) public {\r\n    Task memory _task = tasks[_id];\r\n    _task.done = !_task.done;\r\n    tasks[_id] = _task;\r\n    emit TaskCompleted(_id, _task.done,block.timestamp);\r\n  }\r\n\r\n}\r\n",
  "sourcePath": "D:/test_app/html-to-pdf-node-js/contracts/TodoList.sol",
  "compiler": {
    "name": "solc",
    "version": "0.5.16+commit.9c3226ce.Emscripten.clang"
  },
  "schemaVersion": "3.3.1",
  "updatedAt": "2020-10-28T14:56:26.029Z",
  "networkType": "ethereum",
  "devdoc": {
    "methods": {}
  },
  "userdoc": {
    "methods": {}
  }
}